{
  "contractName": "DAppToken",
  "abi": [
    {
      "constant": true,
      "inputs": [],
      "name": "name",
      "outputs": [
        {
          "name": "",
          "type": "string"
        }
      ],
      "payable": false,
      "stateMutability": "view",
      "type": "function"
    },
    {
      "constant": true,
      "inputs": [],
      "name": "totalSupply",
      "outputs": [
        {
          "name": "",
          "type": "uint256"
        }
      ],
      "payable": false,
      "stateMutability": "view",
      "type": "function"
    },
    {
      "constant": true,
      "inputs": [],
      "name": "standard",
      "outputs": [
        {
          "name": "",
          "type": "string"
        }
      ],
      "payable": false,
      "stateMutability": "view",
      "type": "function"
    },
    {
      "constant": true,
      "inputs": [
        {
          "name": "",
          "type": "address"
        }
      ],
      "name": "balanceOf",
      "outputs": [
        {
          "name": "",
          "type": "uint256"
        }
      ],
      "payable": false,
      "stateMutability": "view",
      "type": "function"
    },
    {
      "constant": true,
      "inputs": [],
      "name": "symbol",
      "outputs": [
        {
          "name": "",
          "type": "string"
        }
      ],
      "payable": false,
      "stateMutability": "view",
      "type": "function"
    },
    {
      "constant": true,
      "inputs": [
        {
          "name": "",
          "type": "address"
        },
        {
          "name": "",
          "type": "address"
        }
      ],
      "name": "allowance",
      "outputs": [
        {
          "name": "",
          "type": "uint256"
        }
      ],
      "payable": false,
      "stateMutability": "view",
      "type": "function"
    },
    {
      "anonymous": false,
      "inputs": [
        {
          "indexed": true,
          "name": "_from",
          "type": "address"
        },
        {
          "indexed": true,
          "name": "_to",
          "type": "address"
        },
        {
          "indexed": false,
          "name": "_value",
          "type": "uint256"
        }
      ],
      "name": "Transfer",
      "type": "event"
    },
    {
      "anonymous": false,
      "inputs": [
        {
          "indexed": true,
          "name": "_owner",
          "type": "address"
        },
        {
          "indexed": true,
          "name": "_spender",
          "type": "address"
        },
        {
          "indexed": false,
          "name": "_value",
          "type": "uint256"
        }
      ],
      "name": "Approval",
      "type": "event"
    },
    {
      "constant": false,
      "inputs": [
        {
          "name": "_initialSupply",
          "type": "uint256"
        }
      ],
      "name": "DappToken",
      "outputs": [],
      "payable": false,
      "stateMutability": "nonpayable",
      "type": "function"
    },
    {
      "constant": false,
      "inputs": [
        {
          "name": "_to",
          "type": "address"
        },
        {
          "name": "_value",
          "type": "uint256"
        }
      ],
      "name": "transfer",
      "outputs": [
        {
          "name": "success",
          "type": "bool"
        }
      ],
      "payable": false,
      "stateMutability": "nonpayable",
      "type": "function"
    },
    {
      "constant": false,
      "inputs": [
        {
          "name": "_spender",
          "type": "address"
        },
        {
          "name": "_value",
          "type": "uint256"
        }
      ],
      "name": "approve",
      "outputs": [
        {
          "name": "success",
          "type": "bool"
        }
      ],
      "payable": false,
      "stateMutability": "nonpayable",
      "type": "function"
    },
    {
      "constant": false,
      "inputs": [
        {
          "name": "_from",
          "type": "address"
        },
        {
          "name": "_to",
          "type": "address"
        },
        {
          "name": "_value",
          "type": "uint256"
        }
      ],
      "name": "transferFrom",
      "outputs": [
        {
          "name": "success",
          "type": "bool"
        }
      ],
      "payable": false,
      "stateMutability": "nonpayable",
      "type": "function"
    }
  ],
  "bytecode": "0x60806040526040805190810160405280600c81526020017f4368617564727920436f696e00000000000000000000000000000000000000008152506000908051906020019061004f9291906100fa565b506040805190810160405280600581526020017f43484155440000000000000000000000000000000000000000000000000000008152506001908051906020019061009b9291906100fa565b506040805190810160405280600e81526020017f44417070546f6b656e2076312e30000000000000000000000000000000000000815250600390805190602001906100e79291906100fa565b503480156100f457600080fd5b5061019f565b828054600181600116156101000203166002900490600052602060002090601f016020900481019282601f1061013b57805160ff1916838001178555610169565b82800160010185558215610169579182015b8281111561016857825182559160200191906001019061014d565b5b509050610176919061017a565b5090565b61019c91905b80821115610198576000816000905550600101610180565b5090565b90565b610c73806101ae6000396000f3fe6080604052600436106100a4576000357c0100000000000000000000000000000000000000000000000000000000900463ffffffff16806306fdde03146100a9578063095ea7b31461013957806318160ddd146101ac57806323b872dd146101d75780635a3b7e421461026a57806370a08231146102fa57806395d89b411461035f578063a9059cbb146103ef578063d9901ce414610462578063dd62ed3e1461049d575b600080fd5b3480156100b557600080fd5b506100be610522565b6040518080602001828103825283818151815260200191508051906020019080838360005b838110156100fe5780820151818401526020810190506100e3565b50505050905090810190601f16801561012b5780820380516001836020036101000a031916815260200191505b509250505060405180910390f35b34801561014557600080fd5b506101926004803603604081101561015c57600080fd5b81019080803573ffffffffffffffffffffffffffffffffffffffff169060200190929190803590602001909291905050506105c0565b604051808215151515815260200191505060405180910390f35b3480156101b857600080fd5b506101c16106b2565b6040518082815260200191505060405180910390f35b3480156101e357600080fd5b50610250600480360360608110156101fa57600080fd5b81019080803573ffffffffffffffffffffffffffffffffffffffff169060200190929190803573ffffffffffffffffffffffffffffffffffffffff169060200190929190803590602001909291905050506106b8565b604051808215151515815260200191505060405180910390f35b34801561027657600080fd5b5061027f610927565b6040518080602001828103825283818151815260200191508051906020019080838360005b838110156102bf5780820151818401526020810190506102a4565b50505050905090810190601f1680156102ec5780820380516001836020036101000a031916815260200191505b509250505060405180910390f35b34801561030657600080fd5b506103496004803603602081101561031d57600080fd5b81019080803573ffffffffffffffffffffffffffffffffffffffff1690602001909291905050506109c5565b6040518082815260200191505060405180910390f35b34801561036b57600080fd5b506103746109dd565b6040518080602001828103825283818151815260200191508051906020019080838360005b838110156103b4578082015181840152602081019050610399565b50505050905090810190601f1680156103e15780820380516001836020036101000a031916815260200191505b509250505060405180910390f35b3480156103fb57600080fd5b506104486004803603604081101561041257600080fd5b81019080803573ffffffffffffffffffffffffffffffffffffffff16906020019092919080359060200190929190505050610a7b565b604051808215151515815260200191505060405180910390f35b34801561046e57600080fd5b5061049b6004803603602081101561048557600080fd5b8101908080359060200190929190505050610bd4565b005b3480156104a957600080fd5b5061050c600480360360408110156104c057600080fd5b81019080803573ffffffffffffffffffffffffffffffffffffffff169060200190929190803573ffffffffffffffffffffffffffffffffffffffff169060200190929190505050610c22565b6040518082815260200191505060405180910390f35b60008054600181600116156101000203166002900480601f0160208091040260200160405190810160405280929190818152602001828054600181600116156101000203166002900480156105b85780601f1061058d576101008083540402835291602001916105b8565b820191906000526020600020905b81548152906001019060200180831161059b57829003601f168201915b505050505081565b600081600560003373ffffffffffffffffffffffffffffffffffffffff1673ffffffffffffffffffffffffffffffffffffffff16815260200190815260200160002060008573ffffffffffffffffffffffffffffffffffffffff1673ffffffffffffffffffffffffffffffffffffffff168152602001908152602001600020819055508273ffffffffffffffffffffffffffffffffffffffff163373ffffffffffffffffffffffffffffffffffffffff167f8c5be1e5ebec7d5bd14f71427d1e84f3dd0314c0f7b2291e5b200ac8c7c3b925846040518082815260200191505060405180910390a36001905092915050565b60025481565b6000600460008573ffffffffffffffffffffffffffffffffffffffff1673ffffffffffffffffffffffffffffffffffffffff16815260200190815260200160002054821115151561070857600080fd5b600560008573ffffffffffffffffffffffffffffffffffffffff1673ffffffffffffffffffffffffffffffffffffffff16815260200190815260200160002060003373ffffffffffffffffffffffffffffffffffffffff1673ffffffffffffffffffffffffffffffffffffffff16815260200190815260200160002054821115151561079357600080fd5b81600460008673ffffffffffffffffffffffffffffffffffffffff1673ffffffffffffffffffffffffffffffffffffffff1681526020019081526020016000206000828254039250508190555081600460008573ffffffffffffffffffffffffffffffffffffffff1673ffffffffffffffffffffffffffffffffffffffff1681526020019081526020016000206000828254019250508190555081600560008673ffffffffffffffffffffffffffffffffffffffff1673ffffffffffffffffffffffffffffffffffffffff16815260200190815260200160002060003373ffffffffffffffffffffffffffffffffffffffff1673ffffffffffffffffffffffffffffffffffffffff168152602001908152602001600020600082825403925050819055508273ffffffffffffffffffffffffffffffffffffffff168473ffffffffffffffffffffffffffffffffffffffff167fddf252ad1be2c89b69c2b068fc378daa952ba7f163c4a11628f55a4df523b3ef846040518082815260200191505060405180910390a3600190509392505050565b60038054600181600116156101000203166002900480601f0160208091040260200160405190810160405280929190818152602001828054600181600116156101000203166002900480156109bd5780601f10610992576101008083540402835291602001916109bd565b820191906000526020600020905b8154815290600101906020018083116109a057829003601f168201915b505050505081565b60046020528060005260406000206000915090505481565b60018054600181600116156101000203166002900480601f016020809104026020016040519081016040528092919081815260200182805460018160011615610100020316600290048015610a735780601f10610a4857610100808354040283529160200191610a73565b820191906000526020600020905b815481529060010190602001808311610a5657829003601f168201915b505050505081565b600081600460003373ffffffffffffffffffffffffffffffffffffffff1673ffffffffffffffffffffffffffffffffffffffff1681526020019081526020016000205410151515610acb57600080fd5b81600460003373ffffffffffffffffffffffffffffffffffffffff1673ffffffffffffffffffffffffffffffffffffffff1681526020019081526020016000206000828254039250508190555081600460008573ffffffffffffffffffffffffffffffffffffffff1673ffffffffffffffffffffffffffffffffffffffff168152602001908152602001600020600082825401925050819055508273ffffffffffffffffffffffffffffffffffffffff163373ffffffffffffffffffffffffffffffffffffffff167fddf252ad1be2c89b69c2b068fc378daa952ba7f163c4a11628f55a4df523b3ef846040518082815260200191505060405180910390a36001905092915050565b8060028190555080600460003373ffffffffffffffffffffffffffffffffffffffff1673ffffffffffffffffffffffffffffffffffffffff1681526020019081526020016000208190555050565b600560205281600052604060002060205280600052604060002060009150915050548156fea165627a7a7230582014274b20d992e49e8b52ceeea9910a3d31b2f7ca977615cb0bbb997cd281505f0029",
  "source": "pragma solidity >=0.4.20;\n\ncontract DAppToken {\n\n//Name\nstring public name =  \"Chaudry Coin\";\n\n//Symbol\nstring public symbol = \"CHAUD\";\n\n//Supply\nuint256 public totalSupply;\n\n//Standard\nstring public standard =  \"DAppToken v1.0\";\n\n\n//transfer\nevent Transfer(\n    address indexed _from,\n    address indexed _to,\n    uint256 _value\n);\n\n//approve\nevent Approval(\n    address indexed _owner,\n    address indexed _spender,\n    uint256 _value\n);\n\n//Key value pair - Responsible for knowning who has what token\nmapping(address => uint256) public balanceOf;\n\n//allowance\nmapping(address => mapping(address => uint256)) public allowance;\n\nfunction DappToken(uint256 _initialSupply) public {\n    totalSupply = _initialSupply;\n    //allocate initial supply\n    balanceOf[msg.sender] = _initialSupply;\n}\n\nfunction transfer(address _to, uint256 _value) public returns (bool success) {\n\n        require(balanceOf[msg.sender] >= _value);\n\n        balanceOf[msg.sender] -= _value;\n        balanceOf[_to] += _value;\n\n        //Actually performs transfer\n        emit Transfer(msg.sender, _to, _value);\n\n        return true;\n    }\n\n// Delegated Transfers\n\n//approve\nfunction approve(address _spender, uint256 _value) public returns (bool success){\n\n// Handle allowance\nallowance[msg.sender][_spender] = _value;\n\n//Handle Approve event\nemit Approval(msg.sender, _spender, _value);\n\nreturn true;\n}\n\n//transferFrom\nfunction transferFrom(address _from, address _to, uint256 _value) public returns (bool success){\n\n//Require from account has enough tokens\nrequire(_value <= balanceOf[_from]);\n\n//Require allowance is big enough => Use mapping to get actual values which are available\nrequire(_value <= allowance[_from][msg.sender]);\n\n//Change balance remove tokens from account and move to recipentent account\nbalanceOf[_from] -= _value;\nbalanceOf[_to] += _value;\n\n//Update allowance decrementing value amount from value\nallowance[_from][msg.sender] -= _value;\n\n//Call transfer event\nemit Transfer(_from, _to, _value);\n\n//Return boolean\nreturn true;\n}\n\n}\n\n",
  "sourcePath": "/Users/samchaudry/Desktop/Git Hub/chaudry_coin/contracts/DappToken.sol",
  "compiler": {
    "name": "solc",
    "version": "0.5.0+commit.1d4f565a.Emscripten.clang"
  },
  "schemaVersion": "3.0.9",
  "updatedAt": "2019-06-15T15:56:27.754Z",
  "devdoc": {
    "methods": {}
  },
  "userdoc": {
    "methods": {}
  }
}